:020000040800F2
:10000000000002208D630008955D0008975D0008E0
:10001000995D00089B5D00089D5D000800000000E0
:100020000000000000000000000000009F5D0008CC
:10003000A15D000800000000A35D0008A55D0008A8
:10004000DD630008DD630008DD630008DD63000890
:10005000DD630008DD630008DD630008DD63000880
:10006000DD630008DD630008DD630008DD63000870
:10007000DD630008DD630008DD630008DD63000860
:10008000DD630008DD630008DD630008DD63000850
:10009000DD630008DD630008DD630008DD63000840
:1000A000DD630008DD630008DD630008DD63000830
:1000B000DD630008DD630008DD630008DD63000820
:1000C000DD630008DD630008DD630008DD63000810
:1000D000DD630008DD630008DD630008DD63000800
:1000E000DD630008DD63000800000000DD63000838
:1000F000DD630008DD630008DD630008DD630008E0
:10010000DD630008DD630008DD630008DD630008CF
:10011000DD630008DD630008DD630008DD630008BF
:10012000DD630008DD630008DD630008DD630008AF
:10013000DD630008DD630008DD630008DD6300089F
:1001400000000000000000000000000000000000AF
:10015000DD630008DD630008DD630008DD6300087F
:10016000DD630008DD630008DD630008DD6300086F
:10017000DD630008DD630008DD63000800000000A7
:10018000DD630008DD630008DD630008DD6300084F
:10019000DD630008DD630008DD630008DD6300083F
:1001A000DD630008DD630008DD630008DD6300082F
:1001B000DD630008DD630008DD630008DD6300081F
:1001C000DD630008DD630008DD630008DD6300080F
:1001D000DD630008AD5D0008DD630008DD63000835
:1001E000DD630008DD630008DD630008DD630008EF
:1001F000DD630008DD630008DD630008DD630008DF
:10020000DD630008DD630008DD630008DD630008CE
:10021000DD630008DD630008DD630008DD630008BE
:10022000DD630008DD630008DD63000800000000F6
:10023000DD630008DD63000800000000DD630008E6
:10024000DD630008DD630008DD630008DD6300088E
:10025000DD630008DD630008DD630008DD6300087E
:10026000DD630008DD630008DD630008DD6300086E
:10027000DD630008DD630008DD63000800000000A6
:10028000DD630008DD630008DD6300080000000096
:0802900000000000DD6300081E
:1002980010B5054C237833B9044B13B10448AFF3B8
:1002A80000800123237010BD6C0A002000000000AC
:1002B8003C6E000808B5034B1BB103490348AFF374
:1002C800008008BD00000000700A00203C6E000895
:1002D80053B94AB9002908BF00281CBF4FF0FF31A5
:1002E8004FF0FF3000F06EB9ADF1080C6DE904CEA7
:1002F80000F006F8DDF804E0DDE9022304B07047F9
:100308002DE9F047089D04468C46002B40F0838079
:100318008A42174647D9B2FA82F242B1C2F12000A6
:1003280024FA00F09140974040EA010C94404FEACB
:100338001748230CBCFBF8F61FFA87FE08FB16C10A
:1003480043EA014306FB0EF1994209D9FB1806F16D
:10035800FF3080F01981994240F21681023E3B44F9
:100368005B1AA4B2B3FBF8F008FB103344EA034469
:1003780000FB0EFEA64509D93C1900F1FF3380F0B9
:100388000581A64540F2028102383C4440EA064015
:10039800A4EB0E0400261DB1D4400023C5E9004398
:1003A8003146BDE8F08702B9FFDEB2FA82F2002AD0
:1003B80050D1CB1B4FEA174E1FFA87F80126B3FB23
:1003C800FEFC210C0EFB1C3341EA034108FB0CF335
:1003D8008B4207D979180CF1FF3002D28B4200F218
:1003E800E9808446C91AA3B2B1FBFEF00EFB1011D6
:1003F80043EA014408FB00F8A04507D93C1900F17D
:10040800FF3302D2A04500F2D9801846A4EB0804B5
:1004180040EA0C40BFE78B4209D9002D00F0B180BB
:100428000026C5E9000130463146BDE8F087B3FA39
:1004380083F6002E4AD18B4202D3824200F2B88062
:10044800841A61EB030101208C46002DA8D0C5E970
:10045800004CA5E7C2F1200320FA03F6974001FA01
:1004680002F04FEA174ED9403043030CB1FBFEF6B9
:100478001FFA87F80EFB161143EA014306FB08F141
:10048800994204FA02F409D9FB1806F1FF3C80F0FE
:100498008D80994240F28A80023E3B445B1A81B2C9
:1004A800B3FBFEF00EFB103341EA034100FB08F3F7
:1004B8008B4207D9791800F1FF3C73D28B4271D96E
:1004C80002383944CB1A40EA064678E7C6F1200CD0
:1004D80003FA06F422FA0CF31C4320FA0CF701FA8B
:1004E80006F34FEA144E21FA0CF11F433B0CB1FB03
:1004F800FEF91FFA84F80EFB191143EA014109FBC2
:1005080008FA8A4502FA06F200FA06F308D96118D1
:1005180009F1FF3048D28A4546D9A9F10209214498
:10052800A1EB0A01BFB2B1FBFEF00EFB101147EAC6
:10053800014700FB08F8B84507D9E71900F1FF3172
:100548002ED2B8452CD90238274440EA0940A7EBF7
:100558000807A0FB02894F45C64649461AD317D05B
:100568005DB1B3EB0E0267EB010707FA0CFCF24032
:100578004CEA0202F740C5E9002700263146BDE8EB
:10058800F0872E4628460BE70646E9E61846FDE6BC
:100598004345E5D2B8EB020E69EB04010138DFE709
:1005A8000846D2E760468DE78146B9E7664675E7B3
:1005B80030464AE7ACF1020C394413E702383C44B0
:1005C80024E700BF704700BF7047000010B5194B03
:1005D800194ADA670024DC67184AC3F88020C3F890
:1005E800804040F27122C3F88420C3F88440144A42
:1005F800C3F88820C3F888401822C3F88C20C3F8B1
:100608008C40104AC3F89020C3F890404FF49B7276
:10061800C3F89420C3F894400B4AC3F89820C3F851
:1006280098400A4AC3F89C20C3F89C40FFF7CCFFC7
:10063800204610BD004402583150010023C0000A72
:10064800FF072803FFC3FFE83330D731AADE2000B5
:10065800104B1B780BB90120704710B504464FF4B6
:100668007A70B0FBF3F30C4A1068B0FBF3F000F0BB
:10067800CDF868B90F2C01D901200AE000222146E3
:100688004FF0FF3000F082F8044B1C60002000E0BF
:10069800012010BD000000201001002004000020EF
:1006A80010B5032000F060F801F0B0FE0F498B6927
:1006B800C3F303230E4AD35C03F01F03D8408B69AE
:1006C80003F00F03D35C03F01F0320FA03F3094A76
:1006D8001360094B18600020FFF7BAFF10B101241E
:1006E800204610BD044605F03FFBF9E700440258D8
:1006F800806E00081401002010010020034B1B78B5
:10070800034A11680B441360704700BF00000020C3
:10071800C40A0020014B1868704700BFC40A0020B3
:1007280038B50446FFF7F6FF0546B4F1FF3F02D09F
:10073800044B1B781C44FFF7EDFF401BA042FAD383
:1007480038BD00BF00000020014B1868000C70473E
:100758000010005C034A536823F4600303435360AA
:10076800704700BF000400580649CB6823F4E063D3
:100778001B041B0C000200F4E0600343024A1A4306
:10078800CA60704700ED00E00000FA0530B4154B70
:10079800DB68C3F30223C3F10704042C28BF042435
:1007A8001D1D062D14D9033B4FF0FF3505FA04F43F
:1007B80021EA0401994005FA03F322EA03031943E5
:1007C800002807DB0901C9B2074B195430BC704730
:1007D8000023E9E700F00F000901C9B2034B1954DF
:1007E800F4E700BF00ED00E000E400E014ED00E0F5
:1007F800002807DB00F01F02400901239340024A4A
:1008080042F82030704700BF00E100E00138B0F145
:10081800807F0AD2064B5860064AF02182F82310DE
:100828000020986007221A6070470120704700BFB7
:1008380010E000E000ED00E030B48B680A68134374
:100848000A7943EAC2630A7B43EAC2534A7B43EA12
:1008580082538A7B43EA4253CA7B43EA02530A7CA7
:10086800002A40F0B0804FF4002213434A7C002A4B
:1008780040F0AB804FF4003213438A7C43EA0243D2
:100888004A6913438A6913430A7F43EA02334A7F5A
:1008980043EAC2238A7F002A40F099804FF480629D
:1008A8001343CA7F43EA422391F82020002A40F0EC
:1008B80090804FF4807213434A6A134391F82820BA
:1008C80043EA0213CA6A13430468226822F07F428B
:1008D80022F47B0222F4FE4222F07C0213432360BE
:1008E800CA6B91F838301B0643EA426391F830200E
:1008F80043EA824391F8312043EA424391F8322097
:10090800002A68D14FF4803213434A6B13430468BA
:10091800626822F07C5222F4EF2222F4FF6222F075
:1009280007021343636091F840204B6C43EA0222AC
:100938000468E5682B4B2B401343E36091F854207F
:100948000B6D43EA420391F84C20002A45D18022DE
:1009580013438A6C43EA02430468226F22F0F202CE
:100968001204120C1343236791F8563091F855205E
:1009780043EA42020468D4F8903023F00303134397
:10098800C4F890300268D2F8003D23F072038C6DF1
:100998002343C2F8003DCB6D91F86020FAB940229C
:1009A800134391F8612043EA021391F8622043EA65
:1009B800C2030168D1F8302D22F07B021343C1F83D
:1009C800303D30BC704700224FE7002254E7002238
:1009D80066E700226FE7002296E70022B8E70022C8
:1009E800DEE700BFF0FEFFFF70B4026802F5805238
:1009F80014681E4B23400C68234313600A798B68E4
:100A080043EA02330A7B43EAC232056841F204042E
:100A18002E59174B334013432B514C7B0B6A43EA37
:100A28000444026802F588521568124B2B40234390
:100A380013600B690A7D43EA02134A7F43EA0232D4
:100A4800056841F204142E590B4B334013432B51C4
:100A58000A7F8B6943EAC272006841F20811445860
:100A6800064B23401343435070BC7047FD87FFFF7C
:100A7800FE2FFFFF00C0FEFFEFEFC0FFFFFFC07FAC
:100A880070B5A2B0064601258DF8335000241294A3
:100A98008DF841408DF843408DF828508DF8565018
:100AA8008DF832508DF84C408DF884504FF4005337
:100AB8000F938DF85C4018948DF885408DF886402A
:100AC8004FF4C36316938DF830400B948DF835506E
:100AD8008DF836408DF840401D941B9414948DF881
:100AE80064408DF87A408DF84250202320938DF889
:100AF80044508DF855404FF0405309934FF48043CC
:100B08000E938DF8314002231F938DF878408DF8AD
:100B180079408DF854408DF834501A948DF87050FF
:100B280009A9FFF789FE8DF80450029500948DF805
:100B38001C408DF80D408DF80C404FF400130693BF
:100B48008DF8144004938DF81D404FF406730893F4
:100B580069463046FFF748FF22B070BD30B4002226
:100B68000EE0C46802EB4203DD0004EBC30300217E
:100B7800615159609960D960911D40F82130013266
:100B8800032AEED900238362026841F22C13032161
:100B9800D150C168026841F21413D150C268036889
:100BA80003F589531A6030BC704730B4002112E055
:100BB800046901EB4103DD0004EBC3030022625129
:100BC8005A609A60DA601A615A6101F10A0200EB10
:100BD8008202536001310329EAD90023C363036405
:100BE8004364C3648364026841F230130321D15023
:100BF8000169026841F21C13D15003694833016846
:100C080041F228128B5030BC7047000038B50546B9
:100C18000368D3F8004224F4706401F03BFE114BE2
:100C28000344114A934205D244F400742B68C3F874
:100C3800004238BD0D4B03440D4A934202D844F498
:100C48004074F3E70B4B03440B4A9342EED30B4B30
:100C580003440B4A934202D844F48074E6E744F410
:100C68008064E3E700D3CEFEC0E1E40040F1E9FD93
:100C78003F787D0100796CFC005A6202001F0AFA75
:100C88007FF0FA02002800F08C8030B583B004466B
:100C9800436D8BB323236365434BD3F8F42042F0B1
:100CA8000202C3F8F420D3F8F43003F002030193EE
:100CB800019B237A1BBB0020FFF74CFD236803F53B
:100CC80080531A6842F001021A60FFF723FD0546B7
:100CD800236803F580531B6813F0010F14D0FFF746
:100CE80019FD401BB0F5FA7FF2D90423E365E02330
:100CF8006365012003B030BD04F042FECAE74FF43B
:100D08000000FFF727FDD9E72046FFF77FFF01F036
:100D1800C1FD264BA3FB00239B0C2268013BC2F8B4
:100D2800DC302046FFF7ACFE226802F588521368D3
:100D380023F4E01343F400231360626912F0030FF5
:100D480004D00120E065E0236365D3E7206841F221
:100D580008114558164B2B4043EA4203435020469E
:100D6800FFF7FCFE2046FFF720FF626851791379F0
:100D7800226843EA0123C2F800336268D178937885
:100D88001B0443EA0163517843EA0123117822687E
:100D98000B43C2F804330020E06510236365A365A4
:100DA800A8E70120704700BF0044025883DE1B43B8
:100DB8000180FFFFF0B583B000233AE0092400E08A
:100DC8000024B4403C4302356F4E46F825406F4C32
:100DD8002568D44325EA02064F6817F4803F01D0FE
:100DE80042EA0506694D2E606E6804EA06054F68FA
:100DF80017F4003F01D042EA0605644E75604FF0D3
:100E0800B0452D6804EA05064F6817F4801F01D025
:100E180042EA05064FF0B0452E606D682C404E68DA
:100E280016F4001F01D042EA05044FF0B0425460A6
:100E380001330A6832FA03F400F0A38001249C40CD
:100E48002240F5D04D686E1E112D18BF012E01D914
:100E5800122D12D186685F000325BD4026EA0506DB
:100E6800CD68BD4035438560466826EA04064D686E
:100E7800C5F300149C4034434460C7685E000325F2
:100E8800B540EC4327EA05078D68B5403D43C5608A
:100E98004D68122D18BF022D13D1DF08083750F8FE
:100EA80027E003F007054FEA850C0F2505FA0CF536
:100EB8002EEA050E0D6905FA0CF545EA0E0540F80F
:100EC8002750056825404C6804F00304B4402C43BF
:100ED80004604C6814F0805FAAD02D4CD4F8F4500C
:100EE80045F00205C4F8F450D4F8F44004F00204C4
:100EF8000194019C9D08AE1C234C54F8267003F005
:100F08000304A6000F24B44027EA0407214CA0429A
:100F18003FF456AF04F58064A04222D004F5806403
:100F2800A04220D004F58064A0421ED004F580645D
:100F3800A0421CD004F58064A0421AD004F5806455
:100F4800A04218D004F58064A04216D004F580644D
:100F5800A04214D004F58064A0423FF42FAF0A24C5
:100F68002FE701242DE702242BE7032429E7042493
:100F780027E7052425E7062423E7072421E7082493
:100F88001FE703B0F0BD00BF000400588000005800
:100F980000440258000002580369194201D0012098
:100FA8007047002070470AB1816170470904816168
:100FB8007047436931EA030301D08161704709042E
:100FC800816170472DE9F04782B0D0F80080C1EB0D
:100FD800C10300EB83035A6D1B6D9A4255D807462F
:100FE8000C46C1469B1AC1EBC10200EB8202526C4F
:100FF8009A4200D31A4602F1030A4FEA9A0A15E008
:1010080006F1030A4FEA9A0AC4EBC40507EB850503
:10101800A96C3B7C0093B3B2E2B2404603F07CFC7F
:10102800AB6C3344AB646B6D1E446E6509EB4413C3
:1010380003F510639B699BB2534512D3C4EBC402FA
:1010480007EB8202516D136D99420AD24BB15B1ABC
:10105800C4EBC40207EB8202566C9E42D0D31E46F4
:10106800CEE7C4EBC40007EB80073A6D7B6D9A426C
:101078000FD804F00F040123A340D8F8344824EA19
:101088000304C8F83448002000E0012002B0BDE89D
:10109800F0870020FAE7F0B58BB0002800F09380C5
:1010A8000546046890F8BD332BB3032385F8BD3398
:1010B800E36B13F4807F01D100232B61286803F0D0
:1010C800C5F92C4654F8107B6E460FCC0FC60FCCD2
:1010D8000FC694E8030086E803002B1D0ECB3846A4
:1010E80003F0F6F8044658B1022385F8BD3301240D
:1010F80020460BB0F0BD80F8BC3304F059FFD4E7AC
:101108000021286803F0A8F9234616E0C3EBC302C0
:1011180005EB8202012182F83D1082F83C30A2F8EA
:101128004230002182F83F1051649164C3EBC3023E
:1011380005EB820211650133DBB269688B42E5D3A6
:1011480016E0C4EBC40305EB8303002283F8FD21FA
:1011580083F8FC4183F8FF21C3F80422C3F808226E
:10116800C4EBC40305EB8303C3F810220134E4B2D3
:10117800A142E6D82C4654F8107B6E460FCC0FC619
:101188000FCC0FC694E8030086E803002B1D0ECB96
:10119800384603F0A7F9044660B9002385F83830CB
:1011A800012385F8BD336B6A012B08D0286803F04A
:1011B80059FD9DE7022385F8BD33012498E72846A9
:1011C80000F0D0FCF2E7012492E7026890F8BC3303
:1011D800012B19D010B50446012380F8BC33836A6B
:1011E800012B09D0206803F031FD206803F028F9AD
:1011F800002084F8BC0310BD8369012BF2D0936BE7
:1012080043F480339363EDE70220704770B50446DA
:101218000D460068066C00EB411303F530639A68CD
:101228002169012911D035498E4250D03DB9C5EB0D
:10123800C50304EB8303D3F81032002B58D0E9B26E
:10124800204604F00BFF002070BD12F0080F09D0F3
:101258002B498E42F7D912F4004FF4D04FF40042D4
:101268009A60F0E712F0200F02D020229A60EAE795
:1012780012F0280FE7D122498E4206D912F4004F06
:1012880003D04FF400429A60DDE7C5EBC50204EBDA
:101298008202D2F804121B69C3F31203C91AC2F8F6
:1012A8001412D2F80412D2F808320B44C2F80832E9
:1012B80015B9D2F8103223B1E9B2204604F0CEFEB7
:1012C800C1E704F57172012103F01EFDF4E712F481
:1012D800004F03D04FF400429A60B4E712F0200F99
:1012E80001D020229A60E9B2204604F0B7FEAAE7AE
:1012F80004F57172002103F007FDA0E70A31544F8D
:101308000A30544F38B5044603681D6C03EB41138B
:10131800D3F8081B0E4A954207D903F5306311F438
:10132800004F02D04FF400429A60204604F08EFE2F
:10133800074B9D4202D92369012B01D0002038BDFB
:1013480004F571720121206803F0DEFCF6E700BFA6
:101358000A30544F2DE9F04F83B0044605682846FB
:1013680003F0BDFC10B103B0BDE8F08F2F46064670
:10137800206803F083FC0028F5D0206803F07EFC89
:1013880010F0020F04D02268536903F0020353617E
:10139800206803F073FC10F0100F15D022689369D1
:1013A80023F010039361D5F8208008F00F09C8F3E3
:1013B8004343022B00F08580062B00F0AA802268A8
:1013C800936943F010039361206803F057FC10F40D
:1013D800002F40F0B080206803F050FC10F4802FFC
:1013E80040F0F480206803F049FC0028C0F26081D6
:1013F800206803F043FC10F4006F0AD0D5F80838D1
:1014080013F0010F40F06E812268536903F4006302
:101418005361206803F032FC10F0006F15D0226889
:10142800536903F00063536194F8F433002B40F0E0
:101438005D81012184F8F41323685B6DC3F3830392
:10144800C4F8F833204600F0A1FB206803F016FC2E
:1014580010F4805F40F04E81206803F00FFC10F418
:10146800005F40F0AC81206803F008FC10F0080F22
:1014780040F0BD81206803F001FC10F4801F40F0AB
:10148800BF81206803F0FAFB10F4001F40F0C2810E
:10149800206803F0F3FB10F0804F40F0C58120680E
:1014A80003F0ECFB10F0040F3FF45DAF23685D68B8
:1014B80015F0040F40F0C181226853682B43536034
:1014C80051E747F6F07318EA030F3FF478AF4FEA95
:1014D800181B4FEAC9030193C9EBC90A04EB8A0A2E
:1014E800C8F30A12DAF80812284603F033FBCBF3E4
:1014F8000A0BDAF808325B44CAF80832019BA3EBFE
:10150800090304EB8303D3F814325B44CAF814329A
:1015180055E7082204F57171284603F01BFBC8F350
:101528000A18C9EBC90204EB8202D2F81432434408
:10153800C2F8143243E7206803F0A4FB8046B146A2
:1015480017E007EB49130122C3F8082B4946204648
:10155800FFF75CFE1DE007EB49130822C3F8082BD0
:1015680049462046FFF7CEFE16E009F101094FEA89
:101578005808B8F1000F3FF42EAF18F0010FF4D05F
:101588005FFA89F1206803F08DFB824610F0010FA5
:10159800D7D11AF0080FDED11AF0100F04D007EBDC
:1015A80049131022C3F8082B1AF0200F04D007EBB8
:1015B80049132022C3F8082B1AF4005FD5D007EB93
:1015C80049134FF40052C3F8082BCEE7206803F004
:1015D80061FB8046B1462AE05946204604F04AFDA0
:1015E8001AF0080F04D007EB49130822C3F808299A
:1015F8001AF0100F04D007EB49131022C3F808297A
:101608001AF0400F04D007EB49134022C3F8082909
:101618001AF0020F04D007EB49130222C3F8082975
:101628001AF0800F3FD109F101094FEA5808B8F1C3
:10163800000F3FF4D7AE18F0010FF4D05FFA89FB22
:101648005946206803F037FB824610F0010FC7D0D7
:1016580009F00F03012101FA03F2D7F8343823EA1D
:101668000203C7F8343807EB4913C3F8081923698C
:101678008B42B1D1C9EBC90304EB8303596C9A6C53
:101688000A449A64B9F1000FA6D1C9EBC90304EB67
:1016980083031B6D002B9FD104F571720121206813
:1016A80003F032FB98E749462046FFF78BFCBAE780
:1016B800D5F8043823F00103C5F8043894F8F43356
:1016C800012B08D0204604F015FD2268536903F069
:1016D800004353618CE6002184F8F413204600F09F
:1016E80055FAF2E7204604F0EDFC8DE6204604F0BA
:1016F800E9FCAAE605F50068D8F8043023F00103F0
:10170800C8F804301021206802F0BEFE20E007EB84
:1017180046134FF67F31C3F80819D3F8002922F48D
:101728000012C3F80029D3F8002942F00062C3F878
:101738000029C3F8081BD3F8002B22F40012C3F8C1
:10174800002BD3F8002B42F00062C3F8002B0136BF
:101758006368B342DBD8D8F81C3043F00113C8F8EB
:101768001C30236BEBB1D8F8843043F00B03C8F876
:101778008430D8F8443043F00B03C8F84430D5F827
:10178800003823F4FE63C5F8003804F57172217C33
:10179800206803F0B9FA2268536903F4805353614F
:1017A8005AE6D8F8142042F22B031343C8F8143031
:1017B800D8F8103043F00B03C8F81030DFE7206882
:1017C80003F092FA206802F055FFE060256801F006
:1017D80061F80146227B284602F0C0FD204604F04D
:1017E8005AFC2268536903F4005353613BE62046D0
:1017F80004F04BFC2268536903F00803536139E68F
:101808000021204604F082FC2268536903F4801307
:10181800536136E60021204604F072FC22685369C1
:1018280003F40013536133E6204604F075FC226884
:10183800536903F08043536131E6204604F072FC9B
:101848003AE690F8BC33012B0DD010B504460123BD
:1018580080F8BC3380F83810006803F0E7F90020FE
:1018680084F8BC0310BD02207047F8B507460C4643
:1018780011F0800F27D101F00F05C5EBC506B600A2
:1018880006F5FC760644311DC5EBC50500EB85055C
:10189800002085F8FD0104F00F040C708A60CB70FD
:1018A8004A7802B1CC80022B1DD097F8BC33012BAB
:1018B8001CD0012387F8BC33386802F0EBFE002007
:1018C80087F8BC03F8BD01F00F00C0EBC001890028
:1018D800383139440431C0EBC00007EB80000125E2
:1018E80080F83D50D7E700230B71DEE70220E9E7D7
:1018F80010B504460A4611F0800F20D101F00F0000
:10190800C0EBC0039B0003F5FC732344191DC0EB17
:10191800C00004EB8000002380F8FD3102F00F02C4
:101928000A7094F8BC33012B19D0012384F8BC3316
:10193800206802F0F7FE002084F8BC0310BD01F017
:101948000F00C0EBC0039B0038332344191DC0EBC4
:10195800C00004EB8000012380F83D30DEE7022060
:10196800ECE738B501F00F04C4EBC401890001F5B8
:10197800FC7101440431C4EBC40500EB8505C5F8CE
:101988000822C5F810320023C5F8143285F8FD3155
:1019980085F8FC410369012B06D064B9DAB2006806
:1019A80002F02EFF002038BDC4EBC40500EB85050E
:1019B800C5F80C22F1E7DAB2006802F0C1FFF1E7DE
:1019C80038B501F00F04C4EBC40189003831014473
:1019D8000431C4EBC40500EB8505AA642B6500231C
:1019E8006B65012385F83D3085F83C400369012B80
:1019F80006D05CB9DAB2006802F002FF002038BDF8
:101A0800C4EBC40500EB8505EA64F2E7DAB20068C6
:101A180002F096FFF2E738B501F00F0542689542EB
:101A280039D804460B4611F0800F1FD1C1EBC10114
:101A3800890001F5FC7101440431C3EBC30300EBD9
:101A48008303002283F8FD2101238B700D7094F825
:101A5800BC33012B21D0012384F8BC33206803F068
:101A68008AF88DB1002084F8BC0338BDC5EBC501E8
:101A78008900383101440431C5EBC50300EB830309
:101A8800012283F83D20DFE704F57172217C20688C
:101A980003F03AF9E6E70120E7E70220E5E701F07D
:101AA8000F034268934231D810B5044611F0800FF5
:101AB8001ED1C3EBC301890001F5FC710144043157
:101AC800C3EBC30200EB8202002082F8FD01002272
:101AD8008A700B7094F8BC33012B19D0012384F859
:101AE800BC33206803F074F8002084F8BC0310BDF0
:101AF800C3EBC3018900383101440431C3EBC3028D
:101B080000EB8202012082F83D00E0E701207047E7
:101B18000220ECE730B40468606A19B940EA024070
:101B2800A06218E00D46A36A00EB13400023691E6B
:101B38008B4209D203F1400104EB8101496800EBB3
:101B480011400133DBB2F2E740EA024005F13F0100
:101B580004EB81014860002030BC7047036859627B
:101B680000207047034602680121C0F8FC130020DA
:101B780083F8F403936943F000639361516D024B5A
:101B88000B435365704700BF030000107047000007
:101B9800134BDB6813F0040F07D1114BDB6803F01C
:101BA800070383421AD00120704710B50C4AD36846
:101BB80023F007031843D060FEF7ACFD0446084B3A
:101BC8005B6813F4005F07D1FEF7A4FD001BB0F5B6
:101BD8007A7FF4D9012000E0002010BD0020704772
:101BE80000480258024AD36843F08073D3607047B4
:101BF8000048025838B5684B1B6803F00F03062BE2
:101C08000CD8654A136823F00F0343F007031360E9
:101C1800136803F00F03072B40F0BA80FEF77AFD34
:101C280004465E4A136843F0010313605B4B1B686C
:101C380013F0040F06D1FEF76DFD001B0228F5D93D
:101C48000324A6E0554B5A6842F080425A600022AD
:101C58001A61534B534A1360534A1360534B186825
:101C6800FEF7F6FC044608B1012492E0FEF752FDA7
:101C780005464A4B1B6913F0380F08D0FEF74AFD9A
:101C8800401B41F288339842F3D9032481E0FEF7E0
:101C980041FD0546414A1168454B0B4013603F4BD7
:101CA8001B6813F4003F06D0FEF734FD401B642880
:101CB800F5D903246DE0FEF72DFD0546374A136874
:101CC80023F080731360354B1B6813F0007F06D038
:101CD800FEF720FD401B0228F5D9032459E0FEF742
:101CE80019FD05462D4A136823F0806313602B4BBA
:101CF8001B6813F0006F06D0FEF70CFD401B02288E
:101D0800F5D9032445E0FEF705FD0546234A136887
:101D180023F080531360214B1B6813F0005F06D03B
:101D2800FEF7F8FC401B0228F5D9032431E01B4BD1
:101D380000229A61DA611A621E4999621E49D962C3
:101D48001E4919635A639963DA6319645A641968F6
:101D580021F4802119601A664FF0FF329A66D3F891
:101D6800D02042F48032C3F8D0200B4B1B6813F00C
:101D7800080F0ED0084A136823F00F0343F0070337
:101D88001360136803F00F03072B02D0012400E04F
:101D98000124204638BD00BF0020005200440258EC
:101DA8000090D0031001002014010020040000203E
:101DB80045EDF6FF000202020000FF01800201016A
:101DC800002800F0048338B50446036813F0010FB7
:101DD80025D0AE4A136903F03803926A102B15D048
:101DE800182B0FD06368B3F5803F3FD0002B53D139
:101DF800A64B1A6822F480321A601A6822F48022EC
:101E08001A6038E002F00302022AEBD19F4B1B68EC
:101E180013F4003F03D06368002B00F0DA822368D4
:101E280013F0020F00F08B80984A1369926A13F03E
:101E380038035AD0182B55D0E368002B00F0C8801F
:101E480092490A6822F0190213430B60FEF762FCFC
:101E580005468E4B1B6813F0040F40F09780FEF781
:101E680059FC401B0228F4D90320B9E2874A1368B9
:101E780043F48033136063682BB3FEF74BFC0546CD
:101E8800824B1B6813F4003FC9D1FEF743FC401B8B
:101E98006428F5D90320A3E2B3F5A02F09D07B4B22
:101EA8001A6822F480321A601A6822F480221A60B2
:101EB800E1E7764B1A6842F480221A601A6842F405
:101EC80080321A60D7E7FEF725FC05466F4B1B6882
:101ED80013F4003FA3D0FEF71DFC401B6428F5D97E
:101EE80003207DE212F0030FA6D1684B1B6813F0A4
:101EF800040F03D0E368002B00F06D82FEF724FC8A
:101F080041F20303984212D82269402A07D05F4958
:101F18004B6823F47C3343EA02334B600FE05B4A9F
:101F2800536823F47C3343F40033536007E0574A83
:101F3800536823F0FE43216943EA01635360236831
:101F480013F0100F00F08680504A136903F038032D
:101F5800926A082B54D0182B4ED0E369002B00F05E
:101F6800B9804A4A136843F080031360FEF7D2FB36
:101F78000546464B1B6813F4807F40F08980FEF7C6
:101F8800C9FB401B0228F4D9032029E2FEF7DCFB39
:101F980041F20303984212D82269402A07D03B49EC
:101FA8004B6823F47C3343EA02334B60C7E7374A74
:101FB800536823F47C3343F400335360BFE7334A58
:101FC800536823F0FE43216943EA01635360B6E78F
:101FD8002E4A136823F001031360FEF79BFB0546A6
:101FE8002A4B1B6813F0040FA9D0FEF793FB401B84
:101FF8000228F5D90320F3E102F00302012AACD14B
:10200800224B1B6813F4807F03D0E369802B40F0D8
:10201800E481FEF799FB41F20303984212D8226A41
:10202800202A07D019494B6823F0F84343EA826312
:102038004B600FE0154A536823F0F84343F08043A0
:10204800536007E0114AD36823F07C53216A43EABE
:102058000163D360236813F0080F63D06369002B12
:102068004CD00A4A536F43F001035367FEF752FB03
:102078000546064B5B6F13F0020F53D1FEF74AFB80
:10208800401B0228F5D90320AAE100BF00440258EA
:10209800FEF75AFB41F20303984212D8226A202A1B
:1020A80007D085494B6823F0F84343EA82634B60C5
:1020B800D0E7814A536823F0F84343F080435360E4
:1020C800C8E77D4AD36823F07C53216A43EA016359
:1020D800D360BFE7784A136823F080031360FEF7E4
:1020E80019FB0546744B1B6813F4807FB2D0FEF7CA
:1020F80011FB401B0228F5D9032071E16E4A536F8A
:1021080023F001035367FEF705FB05466A4B5B6F37
:1021180013F0020F06D0FEF7FDFA401B0228F5D98E
:1021280003205DE1236813F0200F29D0A3699BB138
:10213800614A136843F480531360FEF7EBFA0546CF
:102148005D4B1B6813F4005F1AD1FEF7E3FA401BDE
:102158000228F5D9032043E1574A136823F4805332
:102168001360FEF7D7FA0546534B1B6813F4005F5C
:1021780006D0FEF7CFFA401B0228F5D903202FE13D
:10218800236813F0040F21D1636A002B00F0278124
:10219800494A126902F03802182A00F0EF80022B2F
:1021A80075D0454A136823F080731360FEF7B2FABE
:1021B8000446414B1B6813F0007F00F0DD80FEF7FA
:1021C800A9FA001B0228F4D9032009E13B4A136845
:1021D80043F480731360FEF79DFA0546374B1B687E
:1021E80013F4807F06D1FEF795FA401B6428F5D9D1
:1021F8000320F5E0A368012B0AD00BBB2E4B1A6F06
:1022080022F001021A671A6F22F004021A6704E02A
:10221800294A136F43F001031367A36833B3FEF72A
:1022280079FA0546244B1B6F13F0020FACD1FEF769
:1022380071FA401B41F288339842F3D90320CFE06A
:10224800052B09D01C4B1A6F22F001021A671A6F6E
:1022580022F004021A67E0E7174B1A6F42F00402F3
:102268001A671A6F42F001021A67D6E7FEF752FAA8
:102278000546114B1B6F13F0020F85D0FEF74AFA83
:10228800401B41F288339842F3D90320A8E00A4A58
:10229800136823F080731360FEF73CFA0546064B7B
:1022A8001B6813F0007F0BD0FEF734FA401B02289E
:1022B800F5D9032094E000BF0044025800480258B2
:1022C8004F4B996A4F4A0A40A16AE06A41EA0011F5
:1022D8000A439A62226B013AC2F30802616B013920
:1022E800490289B20A43A16B0139090401F4FE01CC
:1022F8000A43E16B0139090601F0FE410A431A63FA
:10230800DA6A22F00102DA62596B3F4A0A40A16C8C
:1023180042EAC1025A63DA6A22F00C02216C0A43CB
:10232800DA62DA6A22F00202616C0A43DA62DA6A75
:1023380042F48032DA62DA6A42F40032DA62DA6A45
:1023480042F48022DA62DA6A42F00102DA621A683A
:1023580042F080721A60FEF7DDF90446284B1B68CC
:1023680013F0007F06D1FEF7D5F9001B0228F5D936
:10237800032035E0002033E0002031E0204A916A54
:10238800106B012B2DD001F00303A26A93422AD1CE
:10239800C1F30511E36A994227D1C0F30802236B00
:1023A800013B9A4223D1C0F34622636B013B9A4218
:1023B8001FD1C0F30642A36B013B9A421BD1C0F365
:1023C8000660E36B013B984217D1002008E001202A
:1023D8007047012004E0012002E0012000E0002015
:1023E80038BD0120FCE70120FAE70120F8E70120C9
:1023F800F6E70120F4E70120F2E70120F0E700BF4B
:10240800004402580CFCFFFF0700FFFF744B1B69D8
:1024180003F03803102B00F0DF80182B10D00BB11D
:10242800704870476E4B1B6813F0200F00F0D68081
:102438006B4B1868C0F3C1006B4B23FA00F0704770
:1024480010B4674A916A01F00301946AC4F3051055
:10245800D36A03F00103526BC2F3CC0203FB02F30D
:1024680007EE903AF8EE677A14F47C7F00F09480D7
:10247800012966D0022900F09280E1B107EE100A26
:10248800F8EE476A9FED596A86EE267A544B1B6B25
:10249800C3F3080306EE903AF8EE666A9FED546AB5
:1024A80067EE867A76EEA77AF7EE006A77EEA67A76
:1024B80027EE277A61E04A4B1B6813F0200F23D0E0
:1024C80047490A68C2F3C102474BD34007EE103AA6
:1024D800F8EE476A07EE100AB8EE476A86EE867A83
:1024E8000B6BC3F3080306EE903AF8EE666A9FEDAD
:1024F800406A67EE867A76EEA77AF7EE006A77EE9C
:10250800A67A27EE277A38E007EE100AF8EE476A2F
:102518009FED386A86EE267A314B1B6BC3F30803AE
:1025280006EE903AF8EE666A9FED316A67EE867AB3
:1025380076EEA77AF7EE006A77EEA67A27EE277A84
:102548001BE007EE100AF8EE476A9FED286A86EE50
:10255800267A234B1B6BC3F3080306EE903AF8EE7A
:10256800666A9FED236A67EE867A76EEA77AF7EEBB
:10257800006A77EEA67A27EE277A194B1B6BC3F30E
:102588004623013307EE903AF8EE677AC7EE276ADA
:10259800FCEEE67A17EE900A5DF8044B704707EEFA
:1025A800100AF8EE476A9FED146A86EE267A0C4BFD
:1025B8001B6BC3F3080306EE903AF8EE666A9FEDCC
:1025C8000C6A67EE867A76EEA77AF7EE006A77EEFF
:1025D800A67A27EE277AD0E708487047024870475E
:1025E8000044025800093D000090D0030024744ABA
:1025F800000000390024744C0024F44A00127A00C8
:10260800002800F0328170B50D4604469B4B1B68CC
:1026180003F00F038B420BD2984A136823F00F0381
:102628000B431360136803F00F038B4240F01F81C4
:10263800236813F0040F0CD02269914B9B6903F0B7
:1026480070039A4205D98E498B6923F070031A43A7
:102658008A61236813F0080F0CD06269884BDB6924
:1026680003F070039A4205D98549CB6923F07003BA
:102678001A43CA61236813F0100F0CD0A269804B6B
:10268800DB6903F4E0639A4205D97D49CB6923F4F9
:10269800E0631A43CA61236813F0200F0CD0E26983
:1026A800774B1B6A03F070039A4205D974490B6A89
:1026B80023F070031A430A62236813F0020F0CD048
:1026C800E2686F4B9B6903F00F039A4205D96C4986
:1026D8008B6923F00F031A438A61236813F0010FF3
:1026E80041D0674A936923F47063A1680B439361EF
:1026F8006368022B0AD0032B27D0012B2CD0604A09
:10270800126812F0040F06D10120ADE0126812F42D
:10271800003F00F0AE805A490A6922F007021343CD
:102728000B61FDF7F7FF0646554B1B6903F03803AD
:102738006268B3EBC20F16D0FDF7ECFF801B41F2C5
:1027480088339842F0D903208EE04D4A126812F07F
:10275800007FE0D1012087E0494A126812F4807FA7
:10276800D9D1012080E0236813F0020F0CD0E26871
:10277800434B9B6903F00F039A4205D240498B698A
:1027880023F00F031A438A613C4B1B6803F00F03C5
:10279800AB420AD9394A136823F00F032B4313605D
:1027A800136803F00F03AB4265D1236813F0040FDD
:1027B8000CD02269324B9B6903F070039A4205D210
:1027C8002F498B6923F070031A438A61236813F039
:1027D800080F0CD062692A4BDB6903F070039A4238
:1027E80005D22749CB6923F070031A43CA612368CD
:1027F80013F0100F0CD0A269214BDB6903F4E063DE
:102808009A4205D21E49CB6923F4E0631A43CA6190
:10281800236813F0200F0CD0E269194B1B6A03F0F0
:1028280070039A4205D216490B6A23F070031A43C3
:102838000A62FFF7EBFD12498B69C3F30323114AC0
:10284800D35C03F01F03D8408B6903F00F03D35CFC
:1028580003F01F0320FA03F30B4A13600B4B1860B5
:102868000B4B1868FDF7F4FE70BD0120704701207E
:10287800FAE70120F8E70120F6E700BF0020005240
:1028880000440258806E0008140100201001002046
:102898000400002008B5FFF7B9FD0B4A9369C3F39C
:1028A80003230A49CB5C03F01F0320FA03F3926960
:1028B80002F00F02885C00F01F0023FA00F0044ABF
:1028C8001060044A136008BD00440258806E000876
:1028D800140100201001002008B5FFF7DBFF054BAD
:1028E800DB69C3F30213044AD35C03F01F03D84027
:1028F80008BD00BF00440258806E000808B5FFF705
:10290800C9FF054BDB69C3F30223044AD35C03F018
:102918001F03D84008BD00BF00440258806E00085D
:10292800404B9B6A03F00303032B79D070B505462F
:102938000E463C4A136823F080631360FDF7EAFEF5
:102948000446384B1B6813F0006F06D0FDF7E2FE13
:10295800031B022BF5D9032070BD324B9A6A22F46F
:102968007C32296842EA01329A626A68013AC2F303
:102978000802A9680139490289B20A43E96801399C
:10298800090401F4FE010A4329690139090601F025
:10299800FE410A439A63DA6A22F0C00269690A436F
:1029A800DA62DA6A22F02002A9690A43DA62DA6A8C
:1029B80022F01002DA62D96B1B4A0A40E96942EA3E
:1029C800C102DA63DA6A42F01002DA62C6B91A465C
:1029D800DB6A43F40023D362124A136843F080632E
:1029E8001360FDF797FE04460E4B1B6813F0006F4B
:1029F80014D1FDF78FFE001B0228F5D90320ABE7A1
:102A0800012E05D0074AD36A43F40013D362E3E7E3
:102A1800044AD36A43F48013D362DDE700209BE7BE
:102A280001207047004402580700FFFF404B9B6A93
:102A380003F00303032B79D070B505460E463C4AD4
:102A4800136823F080531360FDF764FE0446384B87
:102A58001B6813F0005F06D0FDF75CFE031B022B1A
:102A6800F5D9032070BD324B9A6A22F07C7229682E
:102A780042EA01529A626A68013AC2F30802A968F6
:102A88000139490289B20A43E9680139090401F4A4
:102A9800FE010A4329690139090601F0FE410A438A
:102AA8001A64DA6A22F4406269690A43DA62DA6A05
:102AB80022F40072A9690A43DA62DA6A22F480729F
:102AC800DA62596C1B4A0A40E96942EAC1025A644F
:102AD800DA6A42F48072DA62C6B91A46DB6A43F4EB
:102AE8008003D362124A136843F080531360FDF7E2
:102AF80011FE04460E4B1B6813F0005F14D1FDF75E
:102B080009FE001B0228F5D90320ABE7012E05D0EA
:102B1800074AD36A43F08073D362E3E7044AD36A6F
:102B280043F40003D362DDE700209BE701207047F0
:102B3800004402580700FFFFF8B50446036813F085
:102B4800006F30D0436EB3F5001F26D00ED8EBB11E
:102B5800B3F5801F07D102210430FFF7E1FE0546D7
:102B680045B12E4621E0012635461EE0B3F5401F4B
:102B780009D10025964A136D23F44013616E0B4367
:102B88001365002611E0012635460EE0904AD36A07
:102B980043F40033D3620025ECE702212430FFF729
:102BA80045FF0546DCE700263546236813F4807F99
:102BB80014D0636D042B30D8DFE803F00322280813
:102BC8000800834AD36A43F40033D36245BB804A82
:102BD800136D23F00703616D0B431365236813F42A
:102BE800007F2FD0A36D802B4AD01ED8002B41D058
:102BF800402B17D10021201DFFF792FE054619E052
:102C08000021201DFFF78CFE0546DFE7002104F1B7
:102C18002400FFF70BFF0546D8E701263546DDE718
:102C28002E46DBE7012635460CE0C02B02D0B3F573
:102C3800807F1CD15DBB664A136D23F4E073A16DE0
:102C48000B431365236813F4806F34D0D4F8A43091
:102C5800B3F5800F4DD01FD8002B44D0B3F5001F1B
:102C680017D10021201DFFF75BFE05461AE001265B
:102C78003546E7E7564AD36A43F40033D362D9E7C7
:102C8800002104F12400FFF7D1FE0546D2E72E46C5
:102C9800D8E7012635460EE0B3F5C00F02D0B3F5EC
:102CA800000F1DD165BB4A4A936D23F46003D4F825
:102CB800A4100B439365236813F4006F35D0D4F840
:102CC800A830B3F1007F53D01FD8002B4AD0B3F1FE
:102CD800807F17D10021201DFFF722FE05461AE04C
:102CE80001263546E7E73A4AD36A43F40033D3620C
:102CF800D8E7002104F12400FFF798FE0546D1E744
:102D08002E46D8E7012635460FE0B3F1407F02D0C2
:102D1800B3F1806F23D1002D31D12D4A936D23F06B
:102D2800E063D4F8A8100B439365236813F0007F81
:102D38002ED0A36C202B3FD026D833B1102B20D116
:102D4800234AD36A43F40033D362002D3AD1204A90
:102D5800D36C23F03003A16C0B43D36418E0012635
:102D68003546E2E71A4AD36A43F40033D362D2E71E
:102D7800002104F12400FFF759FE0546CBE72E4653
:102D8800D3E70126354603E0302BDED00126354651
:102D9800236813F4805F2CD0E36DB3F5005F4DD04A
:102DA80018D8002B44D0B3F5805F0DD10021201D29
:102DB800FFF7B6FD054613E00221201DFFF7B0FD21
:102DC8000546C2E72E46E3E70126354611E000BF77
:102DD80000440258B3F5405F02D0B3F5804F24D1C8
:102DE800002D32D1984A136D23F4E043E16D0B4373
:102DF8001365236813F4005F37D0236EB3F5003FE3
:102E080051D027D83BB1B3F5803F20D10121201DF7
:102E1800FFF786FD0546002D4CD18B4A136D23F430
:102E2800E023216E0B4313651FE001263546E0E7DA
:102E3800854AD36A43F40033D362D1E7002104F111
:102E48002400FFF7F3FD0546CAE72E46D1E7012621
:102E580035460AE0B3F5802FDDD0B3F5A02FDAD0E0
:102E6800B3F5403FD7D001263546236813F4804F89
:102E780030D0D4F8AC30B3F1005F44D01FD83BB1A8
:102E8800B3F1805F18D10121201DFFF749FD0546E8
:102E9800002D3FD16C4A936D23F0E043D4F8AC1079
:102EA8000B43936516E0012104F12400FFF7BEFDF2
:102EB8000546B0E72E46D8E7012635460AE0B3F1C5
:102EC800804FE5D0B3F1A04FE2D0B3F1405FDFD03F
:102ED80001263546236813F4004F09D0E36EB3F199
:102EE800805F19D0B3F1005F24D0D3B101263546F5
:102EF800236813F0807F3DD0636C032B36D8DFE85E
:102F080003F026212F26012104F12400FFF78EFD6E
:102F18000546BDE72E46DDE74B4AD36A43F4003346
:102F2800D3626DB9484A136D23F04053E16E0B43E9
:102F38001365DDE70121201DFFF7F2FC0546F0E7E8
:102F48002E46D5E7404AD36A43F40033D36285B9A5
:102F58003D4AD36C23F00303616C0B43D36409E04F
:102F68000221201DFFF7DCFC0546F0E70126354667
:102F780000E02E46236813F4800F1FD1236813F056
:102F8800010F00F09B80A36F282B00F29580DFE8EB
:102F980003F083939393939393937E939393939351
:102FA80093938C9393939393939383939393939300
:102FB800939383939393939393938300234A1368F0
:102FC80043F480731360FDF7A5FB07461F4B1B688E
:102FD80013F4807F05D1FDF79DFBC01B6428F5D94C
:102FE8000325002D4FD1184B1B6FD4F8B020534048
:102FF80013F4407F0CD0144B1A6F22F44072196FEF
:1030080041F480311967196F21F4803119671A6703
:10301800D4F8B030B3F5807F1AD0002D35D1D4F86C
:10302800B03003F44072B2F5407F22D0064A1369EB
:1030380023F47C53136104490B6FD4F8B020C2F316
:103048000B0213430B6799E70044025800480258E3
:10305800FDF760FB0746874B1B6F13F0020FDCD1AF
:10306800FDF758FBC01B41F288339842F3D903257A
:10307800D3E78048026922F47C527F4901EA13139E
:1030880013430361D7E72E4678E72E4676E70121FA
:10309800201DFFF745FC0546E5B9764A536D23F038
:1030A8003803A16F0B43536508E0012104F12400A4
:1030B800FFF7BCFC0546EFE701263546236813F009
:1030C800020F22D0636F052B1BD8DFE803F00A0537
:1030D800130A0A0A2E46F1E70121201DFFF720FCFA
:1030E80005468DB9634A536D23F00703616F0B439F
:1030F80053650AE0012104F12400FFF797FC054617
:10310800EFE70126354600E02E46236813F0040F4A
:1031180022D0D4F89030052B1AD8DFE803F0080342
:10312800120808080121201DFFF7FAFB054695B98A
:10313800504A936D23F00703D4F890100B4393651E
:103148000AE0012104F12400FFF770FC0546EEE7D0
:103158000126354600E02E46236813F0200F27D0BD
:10316800D4F88C30B3F1005F40D016D83BB1B3F13E
:10317800805F0FD10021201DFFF7D2FB0546002DEF
:103188003BD13C4A536D23F0E043D4F88C100B43F9
:1031980053650DE0012635460AE0B3F1804FEED0C5
:1031A800B3F1A04FEBD0B3F1405FE8D0012635462C
:1031B800236813F0400F30D0D4F89830B3F5006F7F
:1031C8004BD01FD83BB1B3F5806F18D10021201D1B
:1031D800FFF7A6FB0546002D46D1264A936D23F43A
:1031E800E053D4F898100B43936516E0022104F1DC
:1031F8002400FFF71BFC0546C1E72E46D8E7012649
:1032080035460AE0B3F5805FE5D0B3F5A05FE2D0BC
:10321800B3F5406FDFD001263546236813F0800FE1
:1032280037D0D4F89C30B3F5804F00F0A28025D871
:103238003BB1B3F5005F19D10021201DFFF770FBEA
:103248000546002D40F09C800A4A936D23F46043A4
:10325800D4F89C100B4393651BE0022104F1240071
:10326800FFF7E4FB0546B6E72E46D6E701263546C6
:103278000FE000BF00440258CFFFFF00B3F5004F36
:10328800DFD0B3F5204FDCD0B3F5C04FD9D001263D
:103298003546236813F0080F0CD0D4F88030B3F506
:1032A800805F6FD08E4A536D23F44053D4F880105A
:1032B8000B435365236813F0100F0CD0D4F89430E7
:1032C800B3F5807F67D0864A936D23F44073D4F8B2
:1032D80094100B439365236813F4002F0BD0D4F894
:1032E800A030B3F5803F6ED0B3F5003F61D0002B1E
:1032F8005AD001263546236813F4802F0CD0D4F811
:103308008430B3F5001F76D0B3F5401F69D0B3F50C
:10331800801F61D001263546236813F4803F07D00B
:10332800E36C002B70D0B3F5803F7BD00126354687
:10333800236813F0005F7DD1236813F4003F00F089
:103348008680E36FB3F5807F00F0BA807CD9B3F54F
:10335800007F03D0B3F5407F40F0B080002D40F0EF
:10336800B5805F4A536D23F44073E16F0B43536597
:103378006DE0022104F12400FFF758FB054660E7E1
:103388002E4686E7022104F12400FFF74FFB0028B0
:1033980088D0012686E7022104F12400FFF746FBC6
:1033A800002890D001268EE70021201DFFF7B8FAEB
:1033B80005467DB94A4A936D23F44033D4F8A010EA
:1033C8000B43936597E7022104F12400FFF72EFBD6
:1033D8000546EEE72E468EE7414AD36A43F40033AA
:1033E800D3627DB93E4A536D23F44013D4F8841058
:1033F8000B43536590E7012104F12400FFF716FB06
:103408000546EEE72E4687E7354AD36A43F400338C
:10341800D3626DB9324AD36C23F48033E16C0B4329
:10342800D36485E70221201DFFF77AFA0546F0E705
:103438002E467DE7022104F12400FFF7F7FA002861
:103448003FF47AAF012677E7002B87D0012623685F
:1034580013F4801F06D0224A136D23F00043216F16
:103468000B431365236813F0805F07D01C4A136968
:1034780023F48043D4F8B4100B431361236813F486
:10348800001F06D0164A136D23F08073A16E0B43FC
:103498001365236813F0804F09D0114B1A6922F481
:1034A80000421A611A69D4F8B8100A431A612368ED
:1034B800002B0DDB06B101263046F8BD0126C6E714
:1034C800074AD36A43F40033D36247E72E46BEE780
:1034D800034AD36C23F04053216D0B43D364E9E7CF
:1034E8000044025808B5FFF7D5F9054B1B6AC3F32A
:1034F8000213044AD35C03F01F03D84008BD00BF81
:1035080000440258806E000830B4784A916A946A80
:10351800C4F30535D36AC3F30013D26BC2F3CC02EC
:1035280003FB02F314F47C3F00F0DA8001F003019E
:1035380007EE903AF8EE677A012966D0022900F082
:10354800B280E1B107EE105AB8EE477A9FED686A8B
:10355800C6EE076A654B9B6BC3F3080307EE103A88
:10356800B8EE477A9FED636A67EE867A77EE277A38
:10357800B7EE007A77EE877A66EEA76A61E05B4B72
:103588001B6813F0200F23D058490A68C2F3C10200
:10359800594BD34007EE103AB8EE477A06EE905AE8
:1035A800B8EE666AC7EE066A8B6BC3F3080307EECC
:1035B800103AB8EE477A9FED4F6A67EE867A77EE53
:1035C800277AB7EE007A77EE877A66EEA76A38E050
:1035D80007EE105AB8EE477A9FED486AC6EE076ABA
:1035E800424B9B6BC3F3080307EE103AB8EE477AD9
:1035F8009FED406A67EE867A77EE277AB7EE007A13
:1036080077EE877A66EEA76A1BE007EE105AB8EEE7
:10361800477A9FED376AC6EE076A344B9B6BC3F354
:10362800080307EE103AB8EE477A9FED326A67EE64
:10363800867A77EE277AB7EE007A77EE877A66EEA3
:10364800A76A2A4A936BC3F3462307EE103AB8EEEB
:10365800477AB7EE006A37EE067AC6EE877AFCEE4E
:10366800E77AC0ED007A936BC3F3064307EE103A8E
:10367800B8EE477A37EE067AC6EE877AFCEEE77A36
:10368800C0ED017A936BC3F3066307EE903AF8EE48
:10369800677A77EE867A86EEA77ABCEEC77A80EDEF
:1036A800027A30BC704707EE105AB8EE477A9FEDA1
:1036B800146AC6EE076A0D4B9B6BC3F3080307EE4B
:1036C800103AB8EE477A9FED0B6A67EE867A77EE86
:1036D800277AB7EE007A77EE877A66EEA76AB0E7C0
:1036E8000023036043608360DBE700BF00440258A7
:1036F8000024744A000000390090D0030024744C60
:103708000024F44A30B4784A916A946AC4F305559F
:10371800D36AC3F30023526CC2F3CC0203FB02F357
:1037280014F07C7F00F0DA8001F0030107EE903A94
:10373800F8EE677A012966D0022900F0B280E1B17B
:1037480007EE105AB8EE477A9FED686AC6EE076A28
:10375800654B1B6CC3F3080307EE103AB8EE477AC3
:103768009FED636A67EE867A77EE277AB7EE007A7E
:1037780077EE877A66EEA76A61E05B4B1B6813F009
:10378800200F23D058490A68C2F3C102594BD340CD
:1037980007EE103AB8EE477A06EE905AB8EE666A27
:1037A800C7EE066A0B6CC3F3080307EE103AB8EECF
:1037B800477A9FED4F6A67EE867A77EE277AB7EEFB
:1037C800007A77EE877A66EEA76A38E007EE105A35
:1037D800B8EE477A9FED486AC6EE076A424B1B6C03
:1037E800C3F3080307EE103AB8EE477A9FED406A34
:1037F80067EE867A77EE277AB7EE007A77EE877AE1
:1038080066EEA76A1BE007EE105AB8EE477A9FEDFE
:10381800376AC6EE076A344B1B6CC3F3080307EE1E
:10382800103AB8EE477A9FED326A67EE867A77EEFD
:10383800277AB7EE007A77EE877A66EEA76A2A4A81
:10384800136CC3F3462307EE103AB8EE477AB7EE87
:10385800006A37EE067AC6EE877AFCEEE77AC0EDA4
:10386800007A136CC3F3064307EE103AB8EE477AB2
:1038780037EE067AC6EE877AFCEEE77AC0ED017A73
:10388800136CC3F3066307EE903AF8EE677A77EEA7
:10389800867A86EEA77ABCEEC77A80ED027A30BCCB
:1038A800704707EE105AB8EE477A9FED146AC6EED5
:1038B800076A0D4B1B6CC3F3080307EE103AB8EE0A
:1038C800477A9FED0B6A67EE867A77EE277AB7EE2E
:1038D800007A77EE877A66EEA76AB0E7002303607E
:1038E80043608360DBE700BF004402580024744A49
:1038F800000000390090D0030024744C0024F44ADE
:103908002DE9F04186B004460168836802691343D3
:1039180042691343C2691343426E13430868884AD5
:1039280002401A430A602268536823F44053E1684E
:103938000B435360A1692268824B9A4201D0236AE3
:1039480019439068804B03400B4393602268D36A05
:1039580023F00F03616A0B43D36222687B4B9A42C0
:1039680021D07B4B9A4200F08C807A4B9A4200F02F
:10397800A280794B9A4200F0B580784B9A4200F0C9
:10398800C880774B9A4200F0F380764B9A4200F059
:103998001881754B9A4200F02B816A4B9A4200F0CD
:1039A8003E81802333E0714B5B6D03F03803282B95
:1039B80065D8DFE813F0290064006400640064003F
:1039C8006400640064004C016400640064006400E6
:1039D8006400640064002B006400640064006400F8
:1039E8006400640064005E006400640064006400B5
:1039F80064006400640060006400640064006400A3
:103A08006400640064006200012300E008234D495B
:103A18008A4200F02E81E069B0F5004F00F0B081D5
:103A2800202B00F20982202B00F25D82DFE813F0E0
:103A38002A0230025B025B0233025B025B025B021A
:103A480038025B025B025B025B025B025B025B02A9
:103A58003D025B025B025B025B025B025B025B0294
:103A68005B025B025B025B025B025B025B025B0266
:103A780049021023CBE72023C9E74023C7E7802367
:103A8800C5E73A4B5B6D03F00703052B11D8DFE858
:103A980013F00600E00008000A000C000E000023E6
:103AA800B5E70823B3E71023B1E72023AFE74023A6
:103AB800ADE78023ABE72D4B5B6D03F00703052BC8
:103AC8000ED8DFE803F003C80507090B00239EE7BB
:103AD80008239CE710239AE7202398E7402396E7DA
:103AE800802394E7214B5B6D03F00703052B0ED869
:103AF800DFE803F003B30507090B002387E7082372
:103B080085E7102383E7202381E740237FE780238D
:103B18007DE7164B5B6D03F00703052B0ED8DFE836
:103B280003F0039E0507090B002370E708236EE7DF
:103B380010236CE720236AE7402368E7802366E7C1
:103B4800F369FFCF000C0058FFF4FF11001001408B
:103B58000044004000480040004C00400050004035
:103B68000014014000780040007C004000440258E6
:103B78007E4B5B6D03F03803282B20D8DFE803F079
:103B8800151F1F1F1F1F1F1F711F1F1F1F1F1F1FF5
:103B9800171F1F1F1F1F1F1F191F1F1F1F1F1F1F3B
:103BA8001B1F1F1F1F1F1F1F1D0001232FE7082397
:103BB8002DE710232BE7202329E7402327E780233D
:103BC80025E76A4B5B6D03F00703052B0ED8DFE88A
:103BD80003F0034A0507090B002318E7082316E733
:103BE800102314E7202312E7402310E780230EE771
:103BF8005E4B5B6D03F00703052B0ED8DFE803F07F
:103C080003350507090B002301E70823FFE6102306
:103C1800FDE62023FBE64023F9E68023F7E603F5DB
:103C28000E339B6D03F00703052B0ED8DFE803F076
:103C3800031F0507090B0223E9E60823E7E610231B
:103C4800E5E62023E3E64023E1E68023DFE60423DC
:103C5800DDE60423DBE60423D9E60423D7E60423C0
:103C6800D5E60423D3E60423D1E60423CFE60423D0
:103C7800CDE6202B27D8022BC0F02781023B1E2B34
:103C880000F22581DFE813F05200230158002301D8
:103C9800230123015D0023012301230123012301C3
:103CA80023012301620023012301230123012301AE
:103CB80023012301230123012301230123012301DC
:103CC800230123016E00402B2ED14FF40040626A7D
:103CD800274B33F81220B0FBF2F3656805EB45017A
:103CE800994200F2F680B3EB053F00F2F4804FF002
:103CF800000892B200234146FCF7EAFA0F0247EAAD
:103D08001067060268082A464346301847F1000142
:103D1800FCF7DEFAA0F54072164B9A4200F2DD80FD
:103D28002368D8604046A2E00120A0E0FFF7DAFB54
:103D38000028CCD100209AE003A8FFF7E5FB0498FF
:103D4800F6E76846FFF7DEFC0198F1E7074B1B68CA
:103D580013F0200F08D0054B1B68C3F3C1030648B6
:103D6800D840E5E70548B2E70348B0E70044025801
:103D78005C6E0008FFFC0F000090D00300093D00B6
:103D8800202B15D8202B00F2AA80DFE803F0323868
:103D9800A8A83BA8A8A840A8A8A8A8A8A8A845A8D3
:103DA800A8A8A8A8A8A8A8A8A8A8A8A8A8A851008A
:103DB800402B1CD1626A4E4B33F81230B0FBF3F043
:103DC8006268530803EB4000B0FBF2F080B2A0F148
:103DD80010024FF6EF739A4200F2838020F00F032F
:103DE800C0F3420018432368D86000203FE0012058
:103DF8003DE0FEF771FD0028DCD1002037E0FEF73A
:103E08007DFDF8E703A8FFF77FFB0498F3E7684612
:103E1800FFF778FC0198EEE7364B1B6813F0200F8C
:103E280008D0344B1B68C3F3C1033348D840E2E7DA
:103E38003248BFE73048BDE7402B17D14FF4004068
:103E4800626A2B4B33F81230B0FBF3F0636800EB77
:103E58005300B0FBF3F080B2A0F110024FF6EF73FD
:103E68009A4242D82368D860002000E0012001234C
:103E7800A4F86A30A4F868300023E366236706B024
:103E8800BDE8F081FEF728FD0028D9D10020EEE733
:103E9800FEF734FDF8E703A8FFF736FB0498F3E7CD
:103EA8006846FFF72FFC0198EEE7124B1B6813F0EA
:103EB800200F08D00F4B1B68C3F3C1030E48D8402E
:103EC800E2E70E48BCE70C48BAE70120CFE701203B
:103ED800CDE70120CBE70120C9E70120C7E7012092
:103EE800C5E70120C3E70120C1E70120BFE700BF04
:103EF8005C6E0008004402580090D00300093D00A1
:103F0800836A13F0010F06D00268536823F4003364
:103F1800C16A0B435360836A13F0020F06D002682C
:103F2800536823F48033016B0B435360836A13F0A7
:103F3800040F06D00268536823F48023416B0B43B7
:103F48005360836A13F0080F06D00268536823F49D
:103F58000043816B0B435360836A13F0100F06D044
:103F68000268936823F48053C16B0B439360836AA0
:103F780013F0200F06D00268936823F40053016CF5
:103F88000B439360836A13F0400F0AD002685368AA
:103F980023F48013416C0B435360436CB3F5801FCB
:103FA8000BD0836A13F0800F06D00268536823F49D
:103FB8000023C16C0B43536070470268536823F4B5
:103FC800C003816C0B435360EBE72DE9F8430546CA
:103FD8000F4616469946DDF820802C68E46937EAD2
:103FE80004030CBF01240024B44241D1B8F1FF3FBF
:103FF800F3D0FCF78FFBA0EB0900404524D8B8F1BB
:10400800000F21D02B681A6812F0040FE5D0DA6986
:1040180012F4006FE1D04FF400621A622A68136844
:1040280023F4D07313602A68936823F00103936024
:104038002023C5F88030C5F88430C5F888300023BF
:1040480085F87C30032014E02A68136823F4D073C1
:1040580013602A68936823F0010393602023C5F84E
:104068008030C5F88430002385F87C30032000E0D8
:104078000020BDE8F88330B583B004460023C0F8BB
:104088008830FCF747FB054623681B6813F0080FC8
:104098000ED123681B6813F0040F17D12023C4F82E
:1040A8008030C4F88430002084F87C0003B030BD30
:1040B8006FF07E430093034600224FF40011204620
:1040C800FFF783FF0028E4D00320EFE76FF07E437B
:1040D80000932B4600224FF480012046FFF775FF1E
:1040E8000028DBD00320E1E778B310B50446D0F808
:1040F80080300BB32423C4F880302268136823F07F
:10410800010313602046FFF7FBFB012813D0A36AC5
:10411800BBB92268536823F49043536022689368BC
:1041280023F02A0393602268136843F001031360A5
:104138002046FFF7A0FF10BD80F87C3001F0D8FEC4
:10414800D8E72046FFF7DCFEE3E7012070470000D0
:1041580084B00346184A92E8030004AA02E903005F
:1041680016496A4603C982E803005A6E32B9012229
:10417800A3F86A20A3F8682004B0704719688A6811
:10418800C2F34262886804A901EB507010F8081C59
:10419800090110F8100C91FBF0F1A3F86A1004A9BA
:1041A8000A4412F8081C090112F8102C91FBF2F2CB
:1041B800A3F86820E0E700BF546E0008746E00089A
:1041C80090F87C30012B18D0012380F87C30242310
:1041D800C0F8803003681A68196821F00101196075
:1041E80022F000520023436601680A602022C0F8CA
:1041F800802080F87C30184670470220704738B518
:1042080090F87C30012B1DD00446012380F87C30C7
:104218002423C0F8803003681D681A6822F0010260
:104228001A600268936823F0604319439160FFF7AE
:104238008FFF23681D602023C4F88030002084F895
:104248007C0038BD0220FCE738B590F87C30012BA3
:104258001DD00446012380F87C302423C0F8803028
:1042680003681D681A6822F001021A6002689368E0
:1042780023F0606319439160FFF76AFF23681D60AC
:104288002023C4F88030002084F87C0038BD022048
:10429800FCE70000002301330C4A934211D802695D
:1042A800002AF8DA036943F00103036100230133AC
:1042B800064A934207D8026912F0010FF7D100208D
:1042C8007047032070470320704700BF400D03006C
:1042D80084B010B5044603A880E80E00089B012BA3
:1042E8001DD1A36B23F48033A363E2681A4B1340F8
:1042F800E360E36823F44013E3600F9B012B09D0CC
:104308002046FFF7C7FF069B012B1BD0BDE81040D6
:1043180004B07047E36843F48013E360F0E7E368B0
:1043280043F04003E3602046FFF7B4FF0C9B23B93A
:10433800A36B43F48033A363E5E7A36B23F48033D3
:10434800A363E0E7A36843F00603A360A36843F010
:104358002003A360DAE700BFBFFFBDFF022A0AD02F
:104368000921C26822F47052C260C36843EA8123FB
:10437800C36000207047204B0B44204A934229D940
:104388001F4B0B441F4A934226D91F4B0B441F4A0D
:10439800934223D91E4B0B441E4A934220D31E4BF3
:1043A8000B441E4A93421DD91D4B0B441D4A934290
:1043B8001AD31D4B0B441D4A934217D31C4B0B4475
:1043C8001C4A934214D31C4B0B441C4A934211D2EF
:1043D8000721C6E70F21C4E70E21C2E70D21C0E778
:1043E8000C21BEE70B21BCE70A21BAE70921B8E78F
:1043F8000821B6E70621B4E7405327FFFF340C0035
:10440800401E1BFF3F420F0000DC0BFF7F4F1200D6
:10441800808CF9FE20D6130060B6E5FE5FE3160037
:1044280000D3CEFE40771B00C05BB3FEC0912100D5
:1044380000CA91FE20753800E05459FEE09C410006
:10444800836843F00103836000207047836823F08A
:10445800010383600020704708B5C36823F0C04398
:10446800C360012909D069B9C36843F08043C360B8
:104478003220FCF755F9002008BDC36843F000530B
:10448800C360F5E70120F7E7890141F020010161E8
:1044980000230133054A934205D8026912F0200F20
:1044A800F7D1002070470320704700BF400D03007C
:1044B8001023036100230133054A934205D802699A
:1044C80012F0100FF7D1002070470320704700BF8B
:1044D800400D0300D0F800381943C0F80018002038
:1044E8007047000084B02DE9F843044609A880E825
:1044F8000E002546002306E003F1400204EB820289
:104508000021516001330E2BF6D9DDF84C80B8F14B
:10451800000F24D1D4F8043843F00203C4F8043857
:10452800A36B23F40013A363236843F040032360C1
:10453800236843F0800323600023C4F8003E04F599
:104548000066D4F80038C4F800380E9B012B10D14F
:104558000B9B4BB900212046FFF7BCFF0DE0A36B76
:1045680043F40013A363E7E701212046FFF7B2FFF6
:1045780003E003212046FFF7ADFF10212046FFF797
:1045880083FF814608B14FF001092046FFF790FFED
:1045980008B14FF00109002333617361F3610AE048
:1045A800C3B94FF00060C2F8000900220A614FF653
:1045B8007F328A600133099F9F4210D905EB43126D
:1045C80002F51061D2F800090028E9DB0020C2F8E2
:1045D8000009EAE74FF09040C2F80009E5E7002338
:1045E8000AE0BBB14FF09040C2F8000B00220A610C
:1045F8004FF67F328A6001339F4210D905EB431290
:1046080002F53061D2F8000B0028EADB0020C2F87E
:10461800000BEBE74FF00060C2F8000BE6E73369E8
:1046280023F4807333610023A3616FF080436361D7
:104638000C9B1BB9A36943F01003A361A2690B4B40
:104648001343A3610F9B1BB1A36943F00803A36144
:10465800B8F1010F04D04846BDE8F84304B07047EC
:10466800A269034B1343A361F5E700BF00383C8000
:1046780004000040D0F8083813F0060305D0062BD4
:1046880018BF022B03D102207047002070470F206B
:104698007047000070B40C784B78012B20D0D0F80C
:1046A8001C3804F00F060122B24043EA0243C0F866
:1046B8001C3800EB4410D0F8003B13F4004F0CD129
:1046C800D0F8002B8B68C3F30A03C97843EA814307
:1046D8001343134A1A43C0F8002B002070BC7047DC
:1046E800D0F81C2804F00F06B3409BB21343C0F85F
:1046F8001C3800EB4410D0F8003913F4004FECD10B
:10470800D0F800298B68C3F30A03C97843EA8143C8
:1047180043EA84541443024B2343C0F80039DCE7CE
:104728000080001030B40B784A78012A24D000EBBE
:104738004313D3F8002B002A50DBD0F83C580A78F2
:1047480002F00F02012404FA02F225EA0242C0F83C
:104758003C28D0F81C28097801F00F018C4022EA87
:104768000444C0F81C48D3F8001B234A0A40C3F885
:10477800002B002030BC704700EB4313D3F800290E
:10478800002A1EDBD0F83C580A7802F00F020124F8
:1047980004FA02F292B225EA0202C0F83C28D0F8E4
:1047A8001C28097801F00F018C40A4B222EA040405
:1047B800C0F81C48D3F80019104A0A40C3F8002969
:1047C800D7E7D3F8002942F00062C3F80029D3F8EC
:1047D800002942F08042C3F80029D3E7D3F8002B20
:1047E80042F00062C3F8002BD3F8002B42F080425D
:1047F800C3F8002BA1E700BF0078F3EF007833EC93
:1048080070B40B784C78012C24D000EB431000F5E1
:1048180030631D693E4C2C401C611D693D4C2C4089
:104828001C614C690CB18C684C611C6944F400240F
:104838001C611C698D68C5F312052C431C61012A93
:1048480061D0D0F8003B43F00443C0F8003B00209F
:1048580070BC70474C695CBB00EB4314D4F810691A
:104868002C4D3540C4F81059D4F8105945F400259A
:10487800C4F81059D4F81069254D3540C4F81059BA
:10488800012A31D000EB4313D3F8002942F0044247
:10489800C3F800294B69002BD9D0D0F834380A78EE
:1048A80002F00F0101228A401343C0F83438CEE7E2
:1048B80000EB431404F510642669154D3540256155
:1048C8002669144D354025614E698D68AE4200D980
:1048D8004D61256945F40025256125694E69C6F3B2
:1048E800120635432561CBE70A691AB100EB43117B
:1048F800C1F8142900EB4310D0F8002942F0044213
:10490800C0F80029A3E7CA68002A9AD05A6198E734
:104918000000F8FFFFFF07E070B49DF80C4064B991
:1049280003339D08AC4208D200EB023303F58053F1
:1049380051F8046B1E600134F4E7002070BC704726
:10494800F0B583B00B784C78012C29D000EB4313D9
:1049580003F5306426697C4D3540256126697B4D19
:10496800354025614D69002D40F0BF8025698E686E
:10497800C6F3120635432561256945F400252561EE
:10498800012A00F0C780CA78012A00F0C980D3F84C
:10499800002B42F00442C3F8002B002003B0F0BD06
:1049A8004C6974BB00EB4314D4F81069674D35406B
:1049B800C4F81059D4F8105945F40025C4F8105912
:1049C800D4F81069604D3540C4F81059012A4AD00E
:1049D80000EB4313D3F8004944F00444C3F80049FA
:1049E800CC78012C68D04B69002BD6D0D0F834286D
:1049F800097801F00F040121A1400A43C0F83428C6
:104A0800CBE700EB4314D4F810694F4D3540C4F898
:104A18001059D4F810694D4D3540C4F81059D4F8E0
:104A280010694D698F683D44013DB5FBF7F5484F66
:104A380007EAC5453543C4F81059D4F810594E69EA
:104A4800C6F312063543C4F8105904F51064CD783E
:104A5800012DBBD1256925F0C0452561256945F0A3
:104A680000552561B2E70A691AB100EB4314C4F88E
:104A78001429CA78012A08D000EB4313D3F8002977
:104A880042F00442C3F8002987E7D0F8082812F456
:104A9800807F08D100EB4311D1F8002942F0005281
:104AA800C1F80029E8E700EB4311D1F8002942F0EA
:104AB8008052C1F80029DFE7D0F8084814F4807F55
:104AC8000CD1D3F8004944F00054C3F800490092CF
:104AD8008B8A0A78C968FFF71FFF5EE7D3F8004999
:104AE80044F08054C3F80049F1E78E683544013D2D
:104AF800B5FBF6F52669164F07EAC5473E4326611A
:104B080027698E68ADB206FB05F5C5F312053D436E
:104B1800256135E7CA68002A3FF435AF626132E79C
:104B2800D0F8082812F4807F06D1D3F8002B42F081
:104B38000052C3F8002B2AE7D3F8002B42F080522A
:104B4800C3F8002B23E700BF0000F8FFFFFF07E0D2
:104B58000000F81F10B4033294080023A34206D2C1
:104B680000F58052126841F8042B0133F6E7084635
:104B78005DF8044B70470B784A78012A14D000EB93
:104B88004310D0F8002B002A06DB2BB1D0F8003BED
:104B980023F08043C0F8003BD0F8003B43F40013F7
:104BA800C0F8003B0020704700EB4310D0F8002904
:104BB800002A06DB2BB1D0F8003923F08043C0F877
:104BC8000039D0F8003943F40013C0F80039E9E798
:104BD8000B784A78012A0ED000EB4310D0F8003B3E
:104BE80023F40013C0F8003BCB78023BDBB2012B67
:104BF80015D90020704700EB4310D0F8003923F492
:104C08000013C0F80039CB78023BDBB2012BF0D897
:104C1800D0F8003943F08053C0F80039E9E7D0F8FC
:104C2800003B43F08053C0F8003BE2E7D0F800387F
:104C380023F4FE63C0F80038D0F80038090101F405
:104C4800FE611943C0F800180020704708B5D0F875
:104C5800043823F00203C0F804380320FBF760FD92
:104C6800002008BD08B5D0F8043843F00203C0F8A6
:104C780004380320FBF754FD002008BD4269806911
:104C880010407047D0F8183800F50060C069184027
:104C9800000C7047D0F8183800F50060C06918405B
:104CA80080B2704700EB4111D1F8082B00F5006085
:104CB80040691040704710B4D0F81048D0F8343824
:104CC80001F00F02D340DB01DBB2234300EB4110BC
:104CD80000F51060806818405DF8044B7047406923
:104CE80000F0010070470000D0F80029054B134080
:104CF800C0F80039D0F8043843F48073C0F8043899
:104D08000020704700F8FFFF10B4046C154B9C425C
:104D180003D9D0F8003B002B16DB0024C0F8104B59
:104D2800D0F8104B44F40024C0F8104BD0F8104BC6
:104D380044F01804C0F8104BD0F8104B44F0C044AD
:104D4800C0F8104B012903D000205DF8044B7047D0
:104D5800C0F8142BD0F8003B43F08023C0F8003B88
:104D6800F2E700BF0A30544F2223038000487047FF
:104D78008C0000202223038000487047B0000020E8
:104D88002223038000487047EC000020D0F8BC3292
:104D980000201873704700000A23038000487047FA
:104DA800E000002070B582B0D0F8BC520023ADF806
:104DB80006300C7814F0600425D0202C72D14B7882
:104DC800023B092B1BD8DFE803F014091A1A1A1A38
:104DD8001A1A0F058B782B60002466E001222946F9
:104DE80000F060FD002460E04B881B0A6B60002423
:104DF8005BE00122291D00F055FD002455E000F07C
:104E08001AFA032451E04E780B2E47D8DFE806F053
:104E1800064D46464646154646462D3B90F89C327A
:104E2800032B03D000F007FA03243EE002220DF121
:104E3800060100F037FD344637E04B881B0A222B69
:104E480009D0212B0DD1CA88092A28BF092218495F
:104E580000F028FD29E0CA884A2A28BF4A221549B5
:104E6800F6E700F0E8F903241FE090F89C32032BE2
:104E780003D000F0E0F9032417E0012205F108014E
:104E880000F010FD11E090F89C32032B02D18B78D2
:104E9800AB600AE000F0CFF9032406E000F0CBF99C
:104EA800032402E000F0C7F90324204602B070BDD5
:104EB800D40000200800002010B50446812101F02C
:104EC800A1F9002323876387D4F8BC0220B101F03D
:104ED800AFFA0023C4F8BC32002010BD38B5044630
:104EE800102001F09DFA88B10546C4F8BC02237C65
:104EF8008BB907236387042303228121204601F00D
:104F080076F9012323870020287338BD0023C4F8CD
:104F1800BC320220F9E70A236387ECE7C0B108B581
:104F28000346D0F8B80210B10020C3F8B802D3F88D
:104F3800CC0210B10020C3F8CC0209B1C3F8B412F6
:104F4800012183F89C121A70184601F0F1F808BD87
:104F58000320704710B582B00023ADF8063059B170
:104F68000446C0F8B8128B6A0DF106009847C4F8D9
:104F7800CC02002002B010BD0320FBE708B501F009
:104F88002EF908BD08B5D0F8B83213B11B68984798
:104F980008BD0320FCE708B5D0F8B8320BB15B6850
:104FA8009847002008BD38B5044600F2AA252846CF
:104FB80000F02DF90123C4F89432B4F8B032C4F8E3
:104FC800983294F8AA1201F01F03012B0DD0022B7E
:104FD80010D02BB101F08001204601F01BF903E04D
:104FE8002946204600F0CEFA38BD2946204600F072
:104FF80001FBF9E72946204600F030FBF4E738B515
:1050080004460D4631BB1346D0F89422032A01D03A
:10501800084638BDD0F85C11D0F8602191420CD810
:10502800D0F8B8321B691BB190F89C22032A0FD024
:10503800204600F054FC2846EBE7891AC0F85C11BA
:105048008A4228BF0A46194600F041FC2846E0E794
:105058009847EDE7D0F8B8329B692BB190F89C22BD
:10506800032A03D19847D4E70320D2E70320D0E7E7
:1050780038B504460D46002948D11346D0F8942285
:10508800022A05D094F8A032012B3AD0284638BD20
:10509800C269016A8A4211D88A421BD0D4F8B83250
:1050A800DB681BB194F89C22032A27D08021204674
:1050B80001F0B0F8204600F01DFCE3E7521AC26187
:1050C800194600F0FCFB00231A461946204601F059
:1050D800C1F8D7E783699942E0D8D0F8982293427B
:1050E800DCD20022114600F0EAFB0021C4F8981235
:1050F8000B460A46204601F0ADF8C3E7204698471C
:10510800D4E7002384F8A0322846C0E7D0F8B832A4
:105118005B692BB190F89C22032A03D19847B6E724
:105128000320B4E70320B2E770B50446012380F8F2
:105138009C320023C0F894324360C0F8A432D0F8FF
:10514800BC3223B1D0F8B8325B68002198474023BD
:1051580000221146204601F04AF80126A4F86461AD
:105168004025C4F860512B4600228021204601F0DA
:105178003EF8A6842562002070BD017400207047A7
:1051880090F89C3280F89D32042380F89C320020ED
:10519800704790F89C32042B01D00020704790F89B
:1051A8009D3280F89C32F8E708B590F89C32032BC2
:1051B80001D0002008BDD0F8B832DB69002BF8D048
:1051C8009847F6E700207047002070470020704796
:1051D80008B5012380F89C32D0F8B83213B15B6867
:1051E80001799847002008BD034600201A781AB1B3
:1051F8000130C0B20133F9E7704708B54B88012B7D
:1052080000D008BDC0F8A43200F069FBF9E70B78BC
:1052180003704B7843708B78CA7843EA0223438043
:105228000B794A7943EA022383808B79CA7943EA66
:105238000223C380704710B50446802100F0EAFFBE
:105248000021204600F0E6FF10BD30B583B00446CB
:105258000D460023ADF806304A88130A013B062B99
:1052680000F2AB80DFE803F0041F33A9A98D9A0090
:10527800D0F8B4321B680DF10601007C9847EA8823
:10528800002A00F0A380BDF80630002B00F09980BA
:105298009A4228BF1A46ADF806200146204600F07B
:1052A80001FB03B030BD037C43B9D0F8B8329B6A28
:1052B8000DF10600984702234370E0E7D0F8B832B2
:1052C800DB6A0DF10600984702234370D7E7D2B294
:1052D800052A52D8DFE802F003101D2A3744D0F817
:1052E800B4325B6823B10DF10601007C9847C6E72C
:1052F8002946FFF7A0FFD4E7D0F8B4329B6823B162
:105308000DF10601007C9847B9E72946FFF793FF9E
:10531800C7E7D0F8B432DB6823B10DF10601007C91
:105328009847ACE72946FFF786FFBAE7D0F8B432CA
:105338001B6923B10DF10601007C98479FE72946B8
:10534800FFF779FFADE7D0F8B4325B6923B10DF10F
:105358000601007C984792E72946FFF76CFFA0E713
:10536800D0F8B4329B6923B10DF10601007C98474F
:1053780085E72946FFF75FFF93E72946FFF75BFFBD
:105388008FE7037C33B9D0F8B8325B6B0DF10600B8
:10539800984774E72946FFF74EFF82E7037C43B935
:1053A800D0F8B8321B6B0DF10600984707234370FD
:1053B80065E72946FFF73FFF73E72946FFF73BFFFD
:1053C8006FE729462046FFF736FF6AE7204600F0D8
:1053D80086FA66E738B504468B88F3B9CB88E3B913
:1053E8004B887F2B19D803F07F0590F89C32032B4C
:1053F8000CD080F89E52294600F01CFF204600F091
:105408006EFA35B1022384F89C3209E0FFF713FFE6
:1054180006E0012384F89C3202E02046FFF70BFFE8
:1054280038BD000070B504460E468D782D4B1D70B2
:10543800012D0FD890F89C32022B0FD0032B23D0CC
:10544800FFF7F9FE274B19782046FFF7A4FD03253F
:10545800284670BDFFF7EFFE0325F9E78DB14560DB
:105468002946FFF78FFD054620B131462046FFF754
:10547800E2FEEDE7204600F032FA032384F89C327E
:10548800E6E700F02CFAE3E7CDB141688D4225D07C
:10549800C9B2FFF780FD134B197861602046FFF70A
:1054A80071FD0546B0B131462046FFF7C4FE2179AB
:1054B8002046FFF770FD022384F89C32C8E70223D8
:1054C80080F89C3245602946FFF765FD204600F0CC
:1054D80006FABDE7204600F002FAB9E700F0FFF946
:1054E8000025B5E7880A002008B5CB88012B0AD12A
:1054F80090F89C32022B09D9032B09D10122011DF6
:1055080000F0D0F901E0FFF796FE08BD5BB213B9D1
:10551800FFF791FEF9E70146002341F8083F012211
:1055280000F0C0F9F1E708B590F89C32013B022B76
:1055380012D8CB88022B0CD10123C360D0F8A43237
:105548000BB10323C360022200F10C0100F0AAF999
:1055580008BDFFF770FEFBE7FFF76DFEF8E708B53B
:1055680090F89C32013B022B09D84B88012B00D0C4
:1055780008BD0023C0F8A43200F0B1F9F8E7FFF73E
:105588005AFEF5E738B50C7804F06004202C06D0F4
:10559800402C04D054B1FFF74EFE002404E0D0F8AC
:1055A800B8329B6898470446204638BD4D78092D87
:1055B8001DD8DFE805F012191C161C08051C0F0B76
:1055C800FFF743FEF0E7FFF705FFEDE7FFF72AFFD8
:1055D8000446E9E7FFF788FFE6E7FFF7A4FF2C4654
:1055E800E2E7FFF70AFEDFE7FFF7B9FFDCE7FFF7BF
:1055F80022FED9E770B505460C460B7803F0600328
:10560800202B07D0402B05D023B1FFF714FE00262E
:10561800304670BD95F89C32013B022B18D823798F
:10562800012B0FD8D5F8B8329B68214628469847F1
:105638000646E388002BEBD10028E9D1284600F084
:105648004EF9E5E721462846FFF7F5FD0026DFE796
:1056580021462846FFF7EFFD0026D9E7F8B50646AC
:105668000D468B880C7804F06004202C08D0D9B241
:10567800402C05D06CB12946FFF7DDFD002406E07B
:10568800D6F8B8329B6829463046984704462046E3
:10569800F8BD6F78012F37D0032F05D0002F63D0C6
:1056A8002946FFF7C8FDF2E790F89C32022B05D097
:1056B800032B16D02946FFF7BEFDE8E7B1F18003BA
:1056C80018BF0123002908BF002333B100F0A2FD51
:1056D8008021304600F09EFDD9E72946FFF7ABFD53
:1056E800D5E76B884BB9B1F1800318BF01230029B6
:1056F80008BF00230BB1EB881BB1304600F0EFF870
:10570800C5E700F087FDF8E790F89C32022B05D03A
:10571800032B16D02946FFF78EFDB8E7B1F18003B9
:1057280018BF0123002908BF002333B100F072FD20
:105738008021304600F06EFDA9E72946FFF77BFD82
:10574800A5E76B88002BA2D111F07F0F09D1304655
:1057580000F0C5F8D6F8B8329B6829463046984715
:1057680095E700F05FFDF2E790F89C22022A06D048
:10577800032A2ED02946FFF75EFD3C4687E7B1F1A4
:10578800800218BF0122002908BF00229AB913F02D
:10579800800F15D101F07F0101EB8101890001F52E
:1057A800A8710144043100230B600222304600F046
:1057B80079F83C466BE72946FFF73DFD3C4666E72E
:1057C80001F07F0101EB81018900103101440431AE
:1057D800E9E75BB2002B24DB01F00F0202EB820247
:1057E80000EB8202B2F864214AB3002B2CDB01F0F3
:1057F8007F0303EB83039C0004F5A874344404344A
:10580800802914BF00230123002908BF012323B3E3
:105818000023236002222146304600F043F83C462C
:1058280035E701F00F0202EB820200EB8202928C54
:10583800002ADAD12946FFF7FEFC3C4627E729462D
:10584800FFF7F9FC3C4622E701F07F0303EB8303F3
:105858009C00103434440434D2E7304600F09EFCF7
:1058680010B101232360D5E700232360D2E7C0B13C
:1058780070B50D4616460446FFF7B6FC01304000E9
:105888003080287003236B700223227842B1EA54D7
:1058980001345A1CD2B20021A9540233DBB2F4E716
:1058A80070BD704710B513460222C0F89422836178
:1058B800C3610A46002100F0C5FC002010BD08B5F0
:1058C80013460A46002100F0BDFC002008BD08B5BB
:1058D80013460A46002100F0BDFC002008BD08B5AB
:1058E8000423C0F8943200231A46194600F0AAFC93
:1058F800002008BD08B50523C0F8943200231A46D5
:10590800194600F0A7FC002008BD000010B5174894
:10591800174B03604268002313704268802151705E
:105928004268E12191704268D370426813714268FD
:105938005371012303720F4BC3600F4B036140F295
:10594800F4534361FBF79EF960B90C4C30220021F7
:10595800204601F02FF8212344F8043C4FF440334B
:10596800236110BD00F0FEF9EFE700BFC80A002070
:10597800008002400C0A0020AC0900203C0B0020EB
:1059880070B58CB000230793089309930A930B937F
:105998000268444B9A4201D00CB070BD424BD3F818
:1059A800D82042F40042C3F8D820D3F8D82002F413
:1059B80000420092009AD3F8D82042F48032C3F80B
:1059C800D820D3F8D82002F480320192019AD3F873
:1059D800D82042F40032C3F8D820D3F8D82002F4F3
:1059E80000320292029AD3F8E02042F00402C3F88F
:1059F800E020D3F8E02002F004020392039AD3F8DF
:105A0800E02042F00102C3F8E020D3F8E02002F0E1
:105A180001020492049AD3F8E02042F00202C3F88B
:105A2800E020D3F8E02002F002020592059AD3F8AC
:105A3800E02042F04002C3F8E020D3F8E03003F061
:105A480040030693069B32230793022608960024F8
:105A580009940A940B250B9507A91448FBF7AAF992
:105A680086230793089609940A940B9507A910486A
:105A7800FBF7A0F94FF400530793089609940A948A
:105A88000B9507A90B48FBF795F94FF4205307939B
:105A9800089609940A940B9507A90748FBF78AF911
:105AA8007AE700BF0080024000440258000802580C
:105AB8000000025800040258001802582DE9F0416D
:105AC8008CB000240794089409940A940B944E4BC4
